:020000040000FA
:10000000D08F0020F9240000595A00002925000053
:1000100029250000292500002925000029250000A8
:100020000000000000000000000000005D23000050
:100030002925000000000000052300003F5A0000B1
:1000400000000000000000000000000000000000B0
:1000500000000000000000000000000000000000A0
:100060000000000000000000000000000000000090
:100070000000000000000000000000000000000080
:100080000000000000000000000000000000000070
:100090000000000000000000000000000000000060
:1000A0000000000000000000000000000000000050
:1000B0000000000000000000000000000000000040
:1000C0000000000000000000000000000000000030
:1000D0000000000000000000000000000000000020
:1000E0000000000000000000000000000000000010
:1000F0000000000000000000000000000000000000
:1001000000000000000000000000000000000000EF
:1001100000000000000000000000000000000000DF
:1001200000000000000000000000000000000000CF
:1001300000000000000000000000000000000000BF
:1001400000000000000000000000000000000000AF
:10015000000000000000000000000000000000009F
:10016000000000000000000000000000000000008F
:10017000000000000000000000000000000000007F
:10018000000000000000000000000000000000006F
:10019000000000000000000000000000000000005F
:1001A000000000000000000000000000000000004F
:1001B000000000000000000000000000000000003F
:1001C000000000000000000000000000000000002F
:1001D000000000000000000000000000000000001F
:1001E000000000000000000000000000000000000F
:1001F00000000000000000000000000000000000FF
:10020000DEE61E284CBBCE8F02350000EC0000005D
:10021000C8720000010000000000000000000000A3
:10022000FFFF02910000000000000000000000003D
:10023000000000000500000000000000DEE61E28AF
:10024000EAAC45B8023500002000000003100000B1
:100250000100000001000000075D0000DEE61E282E
:10026000EAAC45B802350000300000000210000082
:100270000000000001000000395D00004B5D00003F
:100280005F5D0000395C000068000000DEE61E28AB
:10029000EAAC45B802350000200000000110000063
:1002A0000200000001000000875C0000DEE61E285E
:1002B000EAAC45B802350000200000000111000042
:1002C0000300000001000000735D0000DEE61E2850
:1002D000EAAC45B802350000200000000012000022
:1002E00000000000010000006D320000FFFFFFFF72
:1002F00053B94AB9002908BF00281CBF4FF0FF318D
:100300004FF0FF3000F070B9ADF1080C6DE904CE8C
:1003100000F006F8DDF804E0DDE9022304B07047E0
:100320002DE9F047089E0D4604468A46002B7FD1F2
:100330008A42174641D9B2FA82F24AB1C2F120018B
:1003400005FA02F39740944020FA01F141EA030ACA
:100350004FEA17484FEA144C1FFA87F9BAFBF8FE28
:1003600008FB1EA30EFB09F14CEA0343994206D990
:10037000FB1802D2994200F224810EF1FF3E591A75
:10038000A3B2B1FBF8F008FB101100FB09F943EA36
:100390000144A14505D93C1902D2A14500F20E81C4
:1003A0000138A4EB090440EA0E4000211EB1D440FC
:1003B0000023C6E90043BDE8F08702B9FFDEB2FAC8
:1003C00082F2002A4FD1CB1B4FEA174E1FFA87F853
:1003D0000121250CB3FBFEFC0EFB1C302B4608FB59
:1003E0000CF945EA0045A9450AD97D192CBF01231E
:1003F0000023A94502D9002B00F0D9800CF1FF3C65
:10040000A5EB0905A3B2B5FBFEF00EFB105508FBEA
:1004100000F843EA0544A04505D93C1902D2A0459D
:1004200000F2C9800138A4EB080440EA0C40BDE7A3
:100430008B4208D9002E00F0B1800021C6E90005EA
:100440000846BDE8F087B3FA83F1002946D1AB42F4
:10045000C0F0A780824240F2A4800846002EAAD0B5
:10046000C6E9004AA7E7C2F12000974001FA02F36B
:100470004FEA174EC14024FA00F51FFA87F894405E
:100480001D43B1FBFEF02B0C0EFB101100FB08FC12
:1004900043EA01439C4509D9FB182CBF01210021E7
:1004A0009C4502D9002900F095800138A3EB0C038C
:1004B000ADB2B3FBFEF10EFB113301FB08FC45EAC4
:1004C0000345AC4505D97D1902D2AC4500F28980BF
:1004D0000139A5EB0C0341EA00417AE7C1F12004A0
:1004E0008B4002FA01F705FA01FCE24020FA04F819
:1004F000E54000FA01FE134348EA0C024FEA1348B4
:100500004FEA124C1FFA83F9B5FBF8FA08FB1A55AB
:100510000AFB09F04CEA054C60450AD913EB0C0CB8
:100520002CBF01250025604501D9002D55D00AF1C9
:10053000FF3AACEB000C92B2BCFBF8F008FB10CC1D
:1005400000FB09F942EA0C4CE14505D913EB0C0C10
:1005500001D2E1453BD8013840EA0A40ACEB090C36
:10056000A0FB0789CC4545464A4602D306D1C6457D
:1005700004D20138B8EB070569EB03022EB3BEEBDA
:1005800005036CEB020C23FA01F20CFA04F42CFACA
:1005900001F300211443C6E900430CE7314630461D
:1005A00009E7841A65EB030301209A4656E7ACF18C
:1005B000020C3D4424E702383C4434E702383C4412
:1005C000EFE6AEF1020E3B44D9E63146F3E60238DF
:1005D0009C44C1E702383B4468E7AAF1020A9C4404
:1005E000A7E702393D4474E7704700BF70B491E853
:1005F0007800B2E802105B1854EB0C04B2E8021069
:100600004D4156EB0C0680E878008041013070BC0B
:10061000704700BF70B491E87800B2E802105B1A2E
:1006200074EB0C04B2E802108D4176EB0C0680E806
:1006300078008041404270BC704700BF2DE9F00750
:1006400091E8F807B2E802105B1854EB0C04B2E82A
:1006500002104D4156EB0C06B2E802104F4158EB28
:100660000C08B2E8021059EB01095AEB0C0A80E8B9
:10067000F80780410130BDE8F00770472DE9F00729
:1006800091E8F807B2E802105B1A74EB0C04B2E8C8
:1006900002108D4176EB0C06B2E802108F4178EB28
:1006A0000C08B2E8021079EB01097AEB0C0A80E839
:1006B000F80780414042BDE8F00770472DE9F00798
:1006C000524290E87800B1E880071740DB1918EA39
:1006D000020854EB080419EA020955EB09051AEA65
:1006E000020A56EB0A0678C090E87800B1E8800765
:1006F00017407B4118EA020854EB080419EA020982
:1007000055EB09051AEA020A56EB0A0678C0804141
:100710000130BDE8F00770472DE9F007524290E83C
:100720007800B1E880071740DB1B18EA020874EB79
:10073000080419EA020975EB09051AEA020A76EBC0
:100740000A0678C090E87800B1E880071740BB41FE
:1007500018EA020874EB080419EA020975EB0905A6
:100760001AEA020A76EB0A0678C080414042BDE8E8
:10077000F007704790E8300091E8C000A31B1340D9
:10078000E41AF618EB1B1340ED1AFF1830C0C0C175
:10079000704700BFF0B55242FFF7ECFFFFF7EAFFEA
:1007A000FFF7E8FFFFF7E6FFF0BD00BF2DE9F00718
:1007B0003AC91668A1FB069A4FF0000CE3FB06ACA1
:1007C0004FF00007E4FB06C74FF00008E5FB067892
:1007D00040F8049B56684FF00009E1FB06A9E3FBD3
:1007E00066C9E4FB6679E5FB668940F804AB966868
:1007F0004FF0000AE1FB06CAE3FB667AE4FB668A77
:10080000E5FB669A40F804CBD6684FF0000CE1FB9C
:10081000067CE3FB668CE4FB669CE5FB66AC80E84B
:100820008017BDE8F00770470A4600BF2DE9F04F7A
:1008300092E8F00F2DE9F30F87B01EC90998A1FBCC
:1008400000784FF00009E2FB00894FF0000AE3FB5B
:10085000009A4FF0000BE4FB00AB0D984FF0000C3A
:10086000E1FB00BC4FF0000EE2FB00CE4FF00005B4
:10087000E3FB00E54FF00006E4FB005600970A9802
:100880004FF00007E1FB0087E2FB6097E3FB60A706
:10089000E4FB60B70E98E1FB60C7E2FB60E7E3FBB7
:1008A0006057E4FB6067CDF804800B984FF00008B8
:1008B000E1FB0098E2FB60A8E3FB60B8E4FB60C8E2
:1008C0000F98E1FB60E8E2FB6058E3FB6068E4FB43
:1008D0006078CDF808900C984FF00009E1FB00A972
:1008E000E2FB60B9E3FB60C9E4FB60E91098E1FB5F
:1008F0006059E2FB6069E3FB6079E4FB6089CDF855
:100900000CA0089901F110011EC909984FF0000AC6
:10091000E1FB00BAE2FB60CAE3FB60EAE4FB605A79
:100920000D98E1FB606AE2FB607AE3FB608AE4FB1E
:10093000609ACDF810B00A984FF0000BE1FB00CBA5
:10094000E2FB60EBE3FB605BE4FB606B0E98E1FBBA
:10095000607BE2FB608BE3FB609BE4FB60ABCDF86C
:1009600014C00B984FF0000CE1FB00ECE2FB605C64
:10097000E3FB606CE4FB607C0F98E1FB608CE2FBC6
:10098000609CE3FB60ACE4FB60BCCDF818E00C9825
:100990004FF0000EE1FB005EE2FB606EE3FB607E69
:1009A000E4FB608E1098E1FB609EE2FB60AEE3FB2F
:1009B00060BEE4FB60CE079800F11C0181E8E05FB7
:1009C000BDE8F80380E8F8030AB0BDE8F08F00BF87
:1009D00030B44FF0000310F8014B11F8015B013AFD
:1009E00084EA050443EA0403F5D1A3F101034FEAC5
:1009F000D37030BC704700BF4FF0000310F8012BDC
:100A0000013943EA0203F9D1A3F101034FEAD3709C
:100A1000704700BF11F8013B00F8013B013AF9D1E2
:100A2000704700BF002200F8012B0139FBD170474D
:100A30002DE9F00791E8F807B2E802105B1854EBD3
:100A40000C04B2E802104D4156EB0C06B2E802105D
:100A50004F4158EB0C08B2E8021059EB01095AEB70
:100A60000C0A8941B3F1FF3374F1FF3475F1FF359E
:100A700076F1000677F1000778F1000879F10109B5
:100A80007AF1FF3A51F100015B184C414D4156F1AA
:100A9000000657F1000758F1000859EBD1795AEBDD
:100AA000010A80E8F807BDE8F00770472DE9F00774
:100AB00091E8F807B2E802105B1A74EB0C04B2E894
:100AC00002108D4176EB0C06B2E802108F4178EBF4
:100AD0000C08B2E8021079EB01097AEB0C0A8941A3
:100AE0005B184C414D4156F1000657F1000758F193
:100AF000000859EBD1795AEB010A80E8F807BDE804
:100B0000F00770470A4600BF2DE9F04F92E8F00F5A
:100B10002DE9F30F87B01EC90998A1FB00784FF0AB
:100B20000009E2FB00894FF0000AE3FB009A4FF056
:100B3000000BE4FB00AB0D984FF0000CE1FB00BC98
:100B40004FF0000EE2FB00CE4FF00005E3FB00E5A6
:100B50004FF00006E4FB005600970A984FF000079C
:100B6000E1FB0087E2FB6097E3FB60A7E4FB60B773
:100B70000E98E1FB60C7E2FB60E7E3FB6057E4FB34
:100B80006067CDF804800B984FF00008E1FB0098F7
:100B9000E2FB60A8E3FB60B8E4FB60C80F98E1FBF0
:100BA00060E8E2FB6058E3FB6068E4FB6078CDF846
:100BB00008900C984FF00009E1FB00A9E2FB60B936
:100BC000E3FB60C9E4FB60E91098E1FB6059E2FBDC
:100BD0006069E3FB6079E4FB6089CDF80CA00899BB
:100BE00001F110011EC909984FF0000AE1FB00BA9B
:100BF000E2FB60CAE3FB60EAE4FB605A0D98E1FBAC
:100C0000606AE2FB607AE3FB608AE4FB609ACDF8FD
:100C100010B00A984FF0000BE1FB00CBE2FB60EB59
:100C2000E3FB605BE4FB606B0E98E1FB607BE2FB47
:100C3000608BE3FB609BE4FB60ABCDF814C00B98CA
:100C40004FF0000CE1FB00ECE2FB605CE3FB606C4E
:100C5000E4FB607C0F98E1FB608CE2FB609CE3FBB3
:100C600060ACE4FB60BCCDF818E00C984FF0000ECF
:100C7000E1FB005EE2FB606EE3FB607EE4FB608E06
:100C80001098E1FB609EE2FB60AEE3FB60BEE4FB1C
:100C900060CEDDE90423069C12EB0A0253EB0B0342
:100CA00054EB0C0455EB0E05002040F1000012EB54
:100CB0000B0253EB0C0354EB0E0455EB0E054641AF
:100CC0000020474158EB000859EB0A0940F10000A9
:100CD000B2EB0E0273F1000374F1000475EB0A0528
:100CE00076EB0B0677EB0C0778EB0A0879EB0C092F
:100CF00060F10000B5EB0B0576EB0C0677EB0E0709
:100D000078EB0B0879EB0E0960F100006FEAE07AEE
:100D1000B2EB0A0273EB0A0374EB0A0475F10005E7
:100D200076F1000677F1000778EBDA7879EB0A09BB
:100D300060F100004FEAE07A12EB0A0253EB0A037B
:100D400054EB0A0455F1000556F1000657F100076F
:100D500058EBDA7859EB0A0940F100004FEAE07AE3
:100D600012EB0A0253EB0A0354EB0A0455F1000597
:100D700056F1000657F1000758EBDA7859EB0A09EB
:100D8000DDE900ABDDE902011AEB060A5BEB070BBC
:100D900050EB080051EB09015FF0000C4CF1000C26
:100DA0001AEB070A5BEB080B50EB090051EB09014A
:100DB00052EB0C025FF0000C53EB0C0354EB0C04F1
:100DC00075414CF1000CBAEB090A7BF1000B70F194
:100DD0000000B141BA4173EB0803B44175EB08055B
:100DE0006CF1000CC91B72EB080273EB0903BC41E8
:100DF00075EB09056CF1000C6FEAEC76BAEB060AAC
:100E00007BEB060BB04171F1000172F1000273F14E
:100E1000000374EBD674B5416CF1000C4FEAEC762C
:100E20001AEB060A5BEB060B704151F1000152F11F
:100E3000000253F1000354EBD67475414CF1000CE1
:100E40004FEAEC761AEB060A5BEB060B704151F1A8
:100E5000000152F1000253F1000354EBD6747541C6
:100E6000079FA7E8000C87E83F0011B0BDE8F08FAE
:100E70002DE9F04F92E8F00F4FF0020E88EA781C4F
:100E80008CEAF84C0BEBBC1C8AEA090303EA080362
:100E900083EA0A039C4450F8043B9C4451F8043B09
:100EA0009C44674444EA050B0BEA060B04EA05037D
:100EB0004BEA030BE34484EAF42383EA34530BEB59
:100EC000B30B87EA771C8CEAF74C0AEBBC1C89EA67
:100ED000080303EA070383EA09039C4450F8043B30
:100EE0009C4451F8043B9C4466444BEA040A0AEAD9
:100EF000050A0BEA04034AEA030AE2448BEAFB23ED
:100F000083EA3B530AEBB30A86EA761C8CEAF64C7A
:100F100009EBBC1C88EA070303EA060383EA08031B
:100F20009C4450F8043B9C4451F8043B9C44654469
:100F30004AEA0B0909EA04090AEA0B0349EA030928
:100F4000E1448AEAFA2383EA3A5309EBB30985EAD2
:100F5000751C8CEAF54C08EBBC1C87EA060303EA17
:100F6000050383EA07039C4450F8043B9C4451F872
:100F7000043B9C44644449EA0A0808EA0B0809EA6D
:100F80000A0348EA0308E04489EAF92383EA39536B
:100F900008EBB30884EA741C8CEAF44C07EBBC1C25
:100FA00086EA050303EA040383EA06039C4450F837
:100FB000043B9C4451F8043B9C44E34448EA090741
:100FC00007EA0A0708EA090347EA0307674488EAC9
:100FD000F82383EA385307EBB3078BEA7B1C8CEAD0
:100FE000FB4C06EBBC1C85EA040303EA0B0383EA13
:100FF00005039C4450F8043B9C4451F8043B9C443A
:10100000E24447EA080606EA090607EA080346EA50
:101010000306664487EAF72383EA375306EBB306F1
:101020008AEA7A1C8CEAFA4C05EBBC1C84EA0B03B6
:1010300003EA0A0383EA04039C4450F8043B9C44FB
:1010400051F8043B9C44E14446EA070505EA0805DB
:1010500006EA070345EA0305654486EAF62383EAC0
:10106000365305EBB30589EA791C8CEAF94C04EB9D
:10107000BC1C8BEA0A0303EA090383EA0B039C44C2
:1010800050F8043B9C4451F8043B9C44E04445EA3E
:10109000060404EA070405EA060344EA0304644478
:1010A00085EAF52383EA355304EBB304BEF1010E60
:1010B0007FF4E4AE82E8F00FBDE8F08F2DE9F04F49
:1010C00090E8FC03D0E9091CD0E90EAB0A444FEAD2
:1010D0007A4E8EEAFA4E8EEA9A2E72444FEAF31E48
:1010E0008EEAB34E8EEAD30E724463444FEA7B4ECF
:1010F0008EEAFB4E8EEA9B2E73444FEAF41E8EEA74
:10110000B44E8EEAD40E7344D0E90B1A0C444FEA65
:10111000724E8EEAF24E8EEA922E74444FEAF51E1B
:101120008EEAB54E8EEAD50E744455444FEA734E9E
:101130008EEAF34E8EEA932E75444FEAF61E8EEA3F
:10114000B64E8EEAD60E7544D0E90DEA76444FEAE3
:10115000744E8EEAF44E8EEA942E76444FEAF71ED1
:101160008EEAB74E8EEAD70E764457444FEA754E54
:101170008EEAF54E8EEA952E77444FEAF81E8EEAF7
:10118000B84E8EEAD80E7744D8444FEA764E8EEAAF
:10119000F64E8EEA962EF0444FEAF91E8EEAB94ECC
:1011A0008EEAD90EF044D0E908AB91444FEA774E6D
:1011B0008EEAF74E8EEA972EF1444FEAFA1E8EEA37
:1011C000BA4E8EEADA0EF1449A444FEA784E8EEA2D
:1011D000F84E8EEA982EF2444FEAFB1E8EEABB4E82
:1011E0008EEADB0EF244A3444FEA794E8EEAF94EC2
:1011F0008EEA992EF3444FEAFC1E8EEABC4E8EEA2C
:10120000DC0EF344AC444FEA7A4E8EEAFA4E8EEA94
:101210009A2EF4444FEAF11E8EEAB14E8EEAD10EB8
:10122000F444A0E8FC1FD0E9014531444FEA7B4E6D
:101230008EEAFB4E8EEA9B2E71444FEAF41E8EEA34
:10124000B44E8EEAD40E71443C444FEA7C4E8EEA92
:10125000FC4E8EEA9C2E74444FEAF51E8EEAB54E83
:101260008EEAD50E7444D0E9036745444FEA714EC7
:101270008EEAF14E8EEA912E75444FEAF61E8EEA02
:10128000B64E8EEAD60E75444E444FEA744E8EEA40
:10129000F44E8EEA942E76444FEAF71E8EEAB74E4D
:1012A0008EEAD70E764457444FEA754E8EEAF54ED5
:1012B0008EEA952E77444FEAF21E8EEAB24E8EEAFF
:1012C000D20E7744F2C0BDE8F08F00BF00000000EE
:1012D0002DE9F04F0FF2D029D9E900890FF2D02B78
:1012E000DBE900AB00269BB0CDE900890FF2C829ED
:1012F000D9E90089CDE902AB0FF2C42BDBE900ABE1
:1013000014460546CDE91862CDE90489CDE906AB5E
:10131000002A79D1802301208DF820303A210E2334
:10132000E846CDF8212008AF0DF125020026022B5A
:10133000166021D0032B56601ED0042B96601BD064
:10134000052BD66018D0062B166115D0072B5661D9
:1013500012D0082B96610FD0092BD6610CD00A2B26
:10136000166209D00B2B566206D00C2B966203D066
:101370000E2BD66208BF1663B1EB830F00EB830020
:1013800012D0431C00221AA901443B2B01F8482C1F
:101390000AD01AA90B44392803F8482C00F102039B
:1013A00002D00B4403F8482C620F630D39468DF8C8
:1013B0005B208DF85C30620B63094046E4008DF8D9
:1013C0005D208DF85E308DF85F4003F07BFBDDE93A
:1013D0000064DDE90201DDE9042396FA86FC27BA00
:1013E00006BA0CBA10BA19BA069A079B12BA1BBAF7
:1013F000C5F800C06F60AE60EC6028616961AA61E9
:10140000EB611BB0BDE8F08FE84640460F4603F0A5
:1014100099FA241A03462744002800F0B980421E96
:10142000022A44D939688208012A08913AD0796899
:10143000022A099136D0B968032A0A9132D0F96894
:10144000042A0B912ED03969052A0C912AD079698A
:10145000062A0D9126D0B969072A0E9122D0F96982
:10146000082A0F911ED0396A092A10911AD0796A78
:101470000A2A119116D0B96A0B2A129112D0F96A70
:101480000C2A13910ED0396B0D2A14910AD0796B66
:101490000E2A159106D00F2AB96B18BFFA6B169158
:1014A00018BF179223F00306B342374413D038789D
:1014B000721C1AA93144934201F8480C0BD979786F
:1014C0001AA802360244B34202F8481C03D9BA787B
:1014D000064406F8482C8021581C1AAA1A443828B9
:1014E000189302F8481C98BF08AF35D93F282CD86C
:1014F00000211AAA10443E2B00F8481C03F10202F6
:1015000023D01AA802443D2B02F8481C03F1030221
:101510001BD002443C2B02F8481C03F1040214D0F7
:1015200002443B2B02F8481C03F105020DD0024493
:101530003A2B02F8481C03F1060206D00244382B6D
:1015400002F8481C01D18DF85F1008AF39464046BB
:1015500003F0B8FA3A2819D8431C3B2BC0F13A02E1
:10156000C0F13B0188BF0121022A199C7FF60AAF16
:10157000002600F1200308EB030248F803608B0803
:10158000012B02F104027FF4D1AEF5E6199C0BE7C2
:10159000802218903A210120199C8DF8202008AF54
:1015A000E6E700BFAFF3008067E6096A85AE67BB78
:1015B00072F36E3C3AF54FA57F520E518C68059B35
:1015C000ABD9831F19CDE05B2DE9F0430746002618
:1015D00085B0DFF83490DFF8348001AD59F8044B62
:1015E00098E807003C4485E807000C22294620467D
:1015F00004F045FA00B91CB90136052EEED10024DD
:10160000204605B0BDE8F08368610000206100005D
:1016100070B5044617480D4603F0D0FF24B9BDE865
:101620007040154803F0CABFA169144803F0C6FF13
:101630002146A06904F0B7FB38B9114803F0BEFF9A
:101640002046BDE8704001F08FBE61690D4803F08F
:10165000B5FF0020666904F09AFB864204D96069F0
:10166000294680B201F0DCFC2046BDE8704001F064
:10167000EFBA00BF28650000466500006165000004
:1016800089650000B965000070B54FF40041002085
:1016900001F08AFA064620B11348BDE8704003F015
:1016A0008DBF01F0E3FC044601F0E8FC054620464E
:1016B000FFF78AFF04462846FFF786FF054618B164
:1016C000626943699A4209D300212046FFF7A0FFCF
:1016D00001212846FFF79CFF0448DEE70121FFF7C0
:1016E00097FF31462046F5E7CF650000FD65000015
:1016F0002DE9F04F87B00F461946109B064614257A
:10170000104698469DF844B09DF848A01E4C4FEAFC
:10171000E37950EA01031AD1142D08BF3023139C3A
:1017200018BF01352C4408BF8DF81430152C1BD080
:10173000153C002C1ADC1DF8050039460135B04770
:10174000152DF8D1002C19DC07B0BDE8F08F42460A
:101750004B46FEF7CDFD84460B46A25C60460DF875
:1017600005201946013DD4E70024E4E7BBF1000F52
:10177000E1D039465046B047013CDAE73946504699
:10178000B047013CDEE700BF276600000B6801336D
:101790000B60014B1B68184700800020014B18604C
:1017A000704700BF008000202DE9F04F002605465D
:1017B0008B461C464FF0FF38374687B002F1FF3AA0
:1017C0004FF0000907E0B9F1000F0BD1252800F018
:1017D0000A815946A8471AF8010F0028F3D107B02B
:1017E000BDE8F08F7A280AD8622810D8302851D066
:1017F00044D8252800F0F5802D2800F0FB805946BC
:101800002520A84759469AF80000A847D8E7A0F134
:101810006303172BF3D801A252F823F0DB19000061
:10182000DD180000FF170000FF170000FF17000081
:10183000BF180000DD180000FF170000FF170000B0
:10184000BF180000FF170000FF170000FF1700007F
:1018500057190000FF170000FF170000A319000030
:10186000FF170000DD180000FF170000FF17000041
:1018700085180000FF170000BF180000392815D98F
:101880005828BCD19AF80030702B6ED1002354F840
:10189000042B75E0B8F1000F0BDA002F00F0AC80DC
:1018A000A0F13008002F08BF022794E7B8F1000F1D
:1018B000F6DB0A2303FB0808A8F13008F2E76828E2
:1018C00003D1682E06D1482685E76C2802D16C2EFC
:1018D00000F09480002E92D106467CE77A2E06D145
:1018E000A14659F8042BD317752823D10FE06C2E8D
:1018F000F6D04C2E05D1073424F00709F9E802236D
:10190000F2E77528226804F1040912D10023F81EB9
:1019100018BF0120012F0CBF3024202401900A2081
:10192000CDE90248009059462846FFF7E1FE4C46B3
:1019300046E7D317002A73F10001E8DA59462D2053
:10194000CDE90423A847DDE90423524263EB4303B6
:1019500008F1FF38DBE759463020A8475946782080
:10196000A8474FF0080801278CE76C2E8ED04C2E2C
:101970008CD1E31D23F007031C465B6854F8082B49
:10198000F81E18BF0120012F0CBF30212021CDE906
:10199000021810210190009128465946FFF7A8FE31
:1019A0000EE754F8043B99464A4619F8010B78B9FA
:1019B000032F25D1A2EB0309A8EB0909B9F1000F08
:1019C0007FF7FEAE59462020A84709F1FF39F5E719
:1019D00059460493A847049BE6E7594654F8040B7C
:1019E00013E7594611E74E464F464FF0FF384FF088
:1019F0000109F0E60327EEE60127ECE64C26EAE6CD
:101A00008146E8E607B50B460021024601910348EE
:101A100001A9FFF7C9FE03B05DF804FB8D170000B4
:101A20002DE9F84FB0F81890044619F008089346CD
:101A30000DD001290CBF49F0100949F02009A0F888
:101A400018908BF31188BFF36F8FBDE8F88F09F002
:101A50000709022907D1204603F0BDFD0028F0D078
:101A60000128238B50D16769218B002F15DA256857
:101A700021F00701C4E9008841F00101218300261B
:101A8000218B01F0070ACA4502D0A368002B5CD164
:101A90000DB9002E74D0002358E001F007035A1F3F
:101AA000012A20D821F00701062B256889B2C4E954
:101AB00000880CD1002D2B4638BF00232BB1628B40
:101AC0001B6801326283002BF8D141F002012046ED
:101AD000218303F080FD06460028D1D0238B43F0FC
:101AE00020032383CBE7042B0CD121F0070189B21B
:101AF0002046218303F06FFD05460028BFD041F04A
:101B0000200121830025BAE7032809D1226923F0A7
:101B10000703166843F00603002523832F46AFE72B
:101B2000042806D1226923F00703566843F0040312
:101B3000F2E7052806D1226923F00703966843F0EF
:101B40000503E9E700252E46E8E7012341F00801F7
:101B500021838BF31188BFF36F8F03BB002D33D12B
:101B600016B120462049B0474FF02003EFF3118B08
:101B700083F31188BFF36F8F238B23F00803238334
:101B8000238BDA0628D5012123F010032383B4F830
:101B9000189009F0070900297FF45BAF51E7A168AD
:101BA0000029DBD00B68002B38BF00239946524632
:101BB0003B462046D1F804B0D847B9F1000FCDD04C
:101BC0004946D9F80030EEE729463B4652462046C2
:101BD0002D6803F01CFDC1E713F020011EBF23F0A8
:101BE000200302212383D2E73B5600004FF020035D
:101BF000EFF3118183F31188BFF36F8F0123094A3B
:101C0000C2F8003502F55B52103253631360C2F81C
:101C10003432C2F8303481F31188BFF36F8F002063
:101C2000704700BF0010005048B1054B1A68054BC3
:101C3000B2FBF3F2044B504343F0010318477047E3
:101C40003C80002040420F0060610000044608B55F
:101C50004FF02002EFF3118382F31188BFF36F8FEF
:101C600003F0EEFE204600F02BFE034803F0A6FC36
:101C700000F0D6FBFCE700BF3C66000010B507484B
:101C800001F094FD064C074B1860204600F062FE00
:101C90002046FFF783FD002010BD00BF65660000F1
:101CA000A91C0000C88100200A2838B50446074D49
:101CB00004D1286883680D215B6898472868836889
:101CC000E1B25B689847204638BD00BFC88100205C
:101CD00070B504460C250D480E46231A9A100C4B7D
:101CE00040215343DBB25D4305F15C03184403F02C
:101CF00017FE011E04DB074B2B445B68984700214D
:101D000020463346BDE87040184700BFDC81002004
:101D1000B76DDBB6906100002DE9F0410F4C104D1E
:101D2000031B9B105D43EBB20C255D43074605F199
:101D30005C000E462044402103F00BFE011E08DB30
:101D4000084B2C44C4E91536074B5B59BDE8F041FC
:101D5000184738463346BDE8F0411847DC8100207B
:101D6000B76DDBB6BB5900009061000001460C2343
:101D700000224B43084870B5C4185C33D4E91556AB
:101D80001844626503F003FE2DB132462B46BDE8D0
:101D900070400248184770BDDC810020A8800020F8
:101DA00010B1012804D07047034BDB6D5B0701D1F4
:101DB000FFF7DCBF704700BFDC810020094B0A49F8
:101DC00000F01F024009012808BF0B4603EB820305
:101DD000D3F8002222F0E04242F04052C3F8002241
:101DE000704700BF00258450002884502DE9F84337
:101DF000002201210646052000F0DEFA052000F051
:101E0000BDFA0020FFF7DAFF0120FFF7D7FF1148E6
:101E100001F048FB104B984219D104F036F8002429
:101E20004FF01C080C27DFF83490F568494608FB92
:101E3000045003F01FFC002807DB012307FB0455B7
:101E40001C44032CEB65F0D10020BDE8F8836FF053
:101E50000400FAE7A11D00000000AD0BB461000012
:101E600008B54FF02003EFF3118183F31188BFF31E
:101E70006F8F124A136843F0020013F001031060E1
:101E80000CD04FF05022D2F80C34D2F80C2413F0BE
:101E9000010303D00A4803F07AFD012381F311887E
:101EA000BFF36F8F23B1BDE808400020FFF75EBF8E
:101EB0000120BDE8084001F005BB00BF54820020AE
:101EC00038820020074BD3E8EF2F22F00201C3E84D
:101ED000E01F0028F7D1D30702D4012001F046BB50
:101EE000704700BF548200202DE9F84301220646C6
:101EF0003949D1E8EF3FC1E8E02F0028F9D133B9E3
:101F0000364937484B60CB608A6003F0C6FB731ECE
:101F1000012B32D8012E07D14FF05023D3F81C34B7
:101F200003F00303022B28D004F08EF8044618B9FE
:101F30002C4B1B78002B47D14FF02003EFF311857A
:101F400083F31188BFF36F8F0124274FDFF89C8044
:101F5000DFF89C904FF05022D2F81834D2F81824B1
:101F6000D2030CD503F00303022B01D0012E06D1BE
:101F700024B385F31188BFF36F8FBDE8F883C4B134
:101F8000284600F05BFA4FF05022D2F81835DBB249
:101F9000012BDFD139680029DCD000213960396894
:101FA0000221C2F818152022C8F88021C9F8003093
:101FB000D0E70021212001F0BFFFE4E74FF05023DC
:101FC0000222C3F80423D8E74FF05023022205462B
:101FD000C3F80823B9E700BF58820020CC81002055
:101FE000F8810020C88700200451005000E100E083
:101FF00008500050821C084B22F07F42C3F8402555
:10200000D3F80425904200D17047D3F80405821C10
:1020100022F07F42F2E700BF005001500022074B40
:102020001A601B68064A074BD3F840051368C01AAC
:1020300020F07F400344136002F062B84051015029
:102040005C8200200050015038B500244FF400128B
:102050000E4D0F4BC5F808451C601B680D4B012148
:10206000C3F880214FF480332246C5F8043315208D
:1020700000F0A2F9152000F081F90123064A0220A0
:1020800013602B60FFF730FF204638BD0050015031
:102090004051015000E100E008500150F8B52D4BCF
:1020A0002D4CD3F804252D4BB0F1FF3F08BF20463F
:1020B0001968521A22F07F43120238D4013820EAFC
:1020C000E070A042A8BF204601331844A04294BF4C
:1020D0000C180C194FF4803000261E4A204DC2F80F
:1020E0000803D2F80415D2F840352E605B1A23F0AD
:1020F0007F432F68012B21F07F47C2F84075C2F85B
:10210000440304D10F2003F0A5FF2E602B684FF489
:102110000012144BC3F880210E4BD3F80405221A89
:1021200022F07F42012A04D1FFF764FF0BE0002078
:10213000CAE724F07F42C3F84025D3F80405241AE7
:10214000023C2302F0D44FF48032024BC3F8042344
:10215000F8BD00BF00500150FFFF7F005C820020EF
:102160004051015000E100E04FF02002EFF31183F5
:1021700082F31188BFF36F8F064AD2F80405064A2E
:102180001268801A20F07F4083F31188BFF36F8FAD
:10219000704700BF005001505C820020014803F0EE
:1021A000EDB800BFC061000008B530B143683BB175
:1021B000006801F0DFFC002008BD6FF4E040FBE7A1
:1021C0000048F9E7EA8FFFFF10B5044618B90B4B3A
:1021D0000B485B689847616859B111F002012068AB
:1021E00008D00146074801F023FC002323600023A8
:1021F000636010BD142203F07DFCF8E748800020E6
:10220000A06600006082002010B5044618B9144B87
:1022100014485B6898476368CBB92368BBB94FF033
:10222000FF324FF0FF3321460F4801F0CFFB08B9D2
:1022300023681BB90A4B0D485B689847142200219C
:10224000206803F057FC636843F002036360206872
:1022500003F046FE636843F00103636010BD00BFF6
:1022600048800020A066000060820020C666000052
:1022700008B568B1436873B100684FF0FF334FF0A1
:10228000FF3201F0FFFB054B002818BF184608BDC0
:102290006FF4E040FBE70248F9E700BFE98FFFFF7A
:1022A000EA8FFFFF08B5064940231422054803F0D2
:1022B000FCFDBDE808400449044803F0B1B800BF84
:1022C0007C82002060820020D8610000C86100008C
:1022D000094A0A49936809685867996708494B6829
:1022E00043F080534B60002383F31188BFF36F8F5B
:1022F0009368986F704700BF848700204462000095
:1023000000ED00E013498A684FF038001044EFF305
:10231000098C80E8F01F202080F31188BFF36F8FB5
:102320000D4F4FF00066CA698A603E60506F00230F
:10233000536780F3118802F1380090E8F01F8CF3A6
:10234000098802F1000004B503F07EFBBDE80440FB
:10235000704700008487002004ED00E01EF0040FA9
:102360000CBFEFF30880EFF30980816911F8021CBC
:102370000229FFD001B503F06BFB01BD43B2002B76
:1023800008DB012200F01F0002FA00F0024A5B099C
:1023900042F82300704700BF00E100E0054B42090E
:1023A00053F82220012300F01F0003FA00F0104030
:1023B000704700BF00E100E043B2002B01F10101D2
:1023C000ACBF03F16043064B4FEA4111C9B2ABBF4A
:1023D00003F5614300F00F0083F8001319547047B0
:1023E00014ED00E00446084611461A46002383F324
:1023F0000B88074B2025A3F5006686F30B8883F333
:102400000988A04785F31188BFF36F8FFEE700BFEF
:10241000D08F0020014910220A60704710ED00E0C3
:1024200072B6404080F31188BFF36F8FBFF34F8FB8
:1024300030BF62B6BFF36F8F704700BF72B64940BE
:1024400081F3118820BF80F3118862B6704700BF06
:1024500037B505460C46C9B18B6810480093D1E9E1
:102460000023452103F0AAF8636945210093D4E9CC
:1024700003230B4803F0A2F84521E269094803F061
:102480009DF84521A269084803F098F8214628469E
:1024900003B0BDE8304001F0B1B900BFF366000001
:1024A000276700005B6700006F67000030BFFFF721
:1024B000FDBF00BF0E4A08B50E4B22F07F029A60A6
:1024C000BFF34F8FBFF36F8FD3F8882022F47002D1
:1024D000C3F88820EFF3148323F0040383F31488F4
:1024E00001F0DCF901F0E4F900F0FCF901F01CFA6C
:1024F0000000000000ED00E003F0F5F9202080F37B
:10250000118808484FF40061401880F30988EFF300
:1025100014800221084380F31488BFF36F8FFFF704
:10252000C9FF0000D08F0020EFF30880EFF309818E
:1025300001B5724600F006F901BD00BF70B5214C2F
:1025400006460D462048452103F038F8A26AD30616
:1025500003D545211D4803F031F8A36A1C0703D5B4
:1025600045211B4803F02AF8164CA36A980710D59A
:102570004521184803F022F8626BA36A190608D5B2
:102580004521154803F01AF81EB1A36A23F0800311
:10259000A3620C4CA26AD20703D545210F4803F071
:1025A0000DF8A36A9B0603D545210D4803F006F8F4
:1025B0000020044B9A6A9A6A42F0FF029A622870DD
:1025C00070BD00BF00ED00E0A2670000BD67000025
:1025D000F56700000D6800002A68000045680000EB
:1025E0006968000070B5234C06460D462248452117
:1025F00002F0E4FFA26AD10403D545211F4802F08E
:10260000DDFFA36A1A0503D545211D4802F0D6FF58
:10261000184CA36A9B0510D51A48452102F0CEFF3D
:10262000A26BA36A180408D54521174802F0C6FF1B
:102630001EB1A36A23F40043A3620E4CA36A59059A
:1026400003D54521114802F0B9FFA36ADA050BD57D
:1026500045210F4802F0B2FF0020064A936A43F476
:102660007F439362287070BDA36A9B04F4D5452113
:102670000848EFE700ED00E09D680000B868000042
:10268000F5670000CE680000EC68000006690000F5
:10269000266900006968000038B5214C45212148B1
:1026A00002F08CFFA26A950103D545211E4802F075
:1026B00085FFA36ADC0103D545211C4802F07EFF9B
:1026C000174DAC6A14F4801404D04521184802F068
:1026D00075FF0224AB6A180303D54521154802F0A3
:1026E0006DFF0F4DAA6A510303D54521124802F030
:1026F00065FFAB6A9A0303D54521104802F05EFFDF
:10270000074DAB6ADB0303D545210D4802F056FFA8
:10271000AB6A20466FEA03436FEA1343AB6238BDEE
:1027200000ED00E043690000606900007869000086
:1027300097690000C6690000E9690000136A00009B
:10274000326A00002DE9F0434A4B0F46D3F804905B
:1027500000258BB0C9F3080885F31188BFF36F8F8C
:1027600002F07F43B3F17F4F07D102F00C03082B37
:1027700005D14521404802F021FF2F4603E0120712
:1027800001D4074601250022A8F1030614468DF85E
:102790000720092E5BD8DFE806F0054F53335A5A5D
:1027A0005A5A5A574521354802F008FF314B8DF8E7
:1027B0000740DC6A14F0020405D04521304802F0DD
:1027C000FDFE00241FE0DB6A5B001CD545212D487F
:1027D00002F0F4FE2C4B1B782BB101200DF1070108
:1027E000FFF7ACFE0EE0294B1B782BB101200DF159
:1027F0000701FFF7F7FE05E0254B1B889BB213B1DD
:10280000FFF74AFF04469DF8073093B92022394666
:1028100002A803F044F9099B35B3C3F3080222B9B7
:102820006FEA53236FEA43230993204602A9FFF777
:102830000FFE0BB0BDE8F08300200DF10701CFE7DC
:1028400000200DF10701D4E745211248B7E71249EE
:1028500019F4F87F114A124808BF0A46A8F110037C
:10286000452102F0ABFEACE723F4FF7323F0010334
:10287000DAE700BF00ED00E0906A0000C06A0000E7
:10288000DC6A0000026B000028ED00E029ED00E0AA
:102890002AED00E0266B0000626A0000776A000003
:1028A000616B0000044B5A6942F010025A615A6988
:1028B00042F480625A61704700ED00E0704700BF4B
:1028C000BFF34F8F0549064BCA6802F4E062134319
:1028D000CB60BFF34F8F00BFFDE700BF00ED00E00E
:1028E0000400FA05002320210348C2180133452BB8
:1028F00082F80013F9D1704700E100E010B50446FA
:1029000001F02AFA114B9B68A34207D1EFF305832C
:1029100083B10F4A536843F0805353604FF0200354
:10292000EFF3118083F31188BFF36F8FBDE8104080
:1029300003F0DDBA4FF02003EFF3118083F3118829
:10294000BFF36F8FFFF7C4FCE8E700BF8487002068
:1029500000ED00E0014B1860704700BF24800020AC
:10296000F0B54B79012B2BD0032B26D110278B7977
:10297000032B22D1CD7925B1012D1ED143681B79BE
:10298000DBB10A79012A1DD0022A1FD0AAB9144648
:102990000B684668B3F5164F36686ED033D8B3F57A
:1029A000165F6DD01CD8B3F5966F6BD010D8B3F509
:1029B000967F6AD0B3F5167F6AD06FF022005BE095
:1029C0000027D4E74FF480740E22E1E70024FBE7F0
:1029D000B3F5166F5FD0B3F5965FEED1384B3EE09E
:1029E000B3F5E14F5AD007D8B3F5615F58D0B3F5CE
:1029F000964FE2D1334B32E047F6122C6345DCD1DF
:102A00004FF400032BE0B3F5613F4BD013D8B3F57F
:102A1000963F4AD009D84DF6C02C634547D0B3F550
:102A2000614FCAD14FF46B0319E0B3F5E13FC4D154
:102A30004FF0EB7313E0B3F5612F3BD009D8DFF80B
:102A400098C0634539D0B3F5E12FB6D14FF0E863B4
:102A500005E0DFF888C06345AFD14FF08053C6F87A
:102A60002435C3682C433A432243043303C9C6F8D0
:102A70006C2583E803000020F0BD4FF41D03EEE752
:102A8000114BECE74FF49E23E9E74FF4A033E6E760
:102A90004FF41C33E3E74FF41D23E0E70B4BDEE775
:102AA0000B4BDCE74FF06C73D9E70A4BD7E74FF4D9
:102AB0006503D4E74FF07063D1E74FF08063CEE752
:102AC00000B0130000A04E000050270000C07500A9
:102AD00000F03A0000903A0190D0030040420F000D
:102AE000074B084900F01F024009012814BF18468F
:102AF000084602F18003032240F82320704700BFFC
:102B00000025845000288450064B074900F01F021E
:102B10004009012814BF18460846012393408360EA
:102B2000704700BF0025845000288450F8B5002766
:102B30004368C6681C680546C4F8007530601420F8
:102B4000FFF7E2FF1420FFF7CBFF1422154B1320F1
:102B5000C3F85872C4F80C251622C4F81425C3F81B
:102B60005472FFF7D1FF1320FFF7BAFF1323C4F805
:102B700008351523E9682846C4F810350431FFF7F5
:102B8000EFFE68B90823C4F80035C4F81001D4F882
:102B9000103101231036C4F83465C4F83835236089
:102BA000F8BD00BF002584502DE9F04105460C46D4
:102BB00002F09BFE002814BF4FF400424FF4804205
:102BC000B5FBF2F302FB13531BB16FF01500BDE828
:102BD000F08102F08AFE002814BF4FF400434FF446
:102BE0008043B4FBF3F803FB1848B8F1000FECD1B5
:102BF00040F21517104E02F078FE002814BF4FF473
:102C000000434FF48043B4FBF3F3434501D8002065
:102C1000DDE702F06AFE002814BF4FF400434FF4D2
:102C20008043B5FBF3F34344DBB203F5C07346F8CE
:102C3000237008F10108DEE7003000500348452109
:102C400008B502F0BBFC0020FFF73AFE896B0000DC
:102C500038B50446BFF36F8F72B6254A00234FF094
:102C6000FF35114603F120000133102B42F82050AC
:102C7000F8D100234FF0FF3003F160020133102B35
:102C800041F82200F8D1A1691A4802F097FC00230C
:102C9000194AC2F80035194A1360194B5A6842F0B4
:102CA00000725A605A6A22F4E0225A62EFF31482E8
:102CB000920705D5EFF3148222F0020282F3148802
:102CC000BFF34F8FBFF36F8FA569012120469D6031
:102CD00000F0CCFA58B1002383F30B8883F30A8801
:102CE0002A6882F3088883F309886B68984738BD9F
:102CF00000E100E0AB6B00000080005010E000E05D
:102D000000ED00E01FB50446074A01AB07CA83E89F
:102D100007000C221946204602F0B1FE00280CBF25
:102D20002046002004B010BD2C61000070B505469F
:102D30000024054E56F8040B2844FFF7E3FF10B9B2
:102D40000134052CF6D170BD086200002DE9F04F6A
:102D50001C46D36982468BB010460F4615469346F3
:102D6000D2F80C90D2F810805E68FFF7CBFF30B934
:102D70000CB1002436E08E4802F020FC32E0AB6952
:102D8000534503D0002CF4D18A48F5E71CB9BB4267
:102D900001D08948F0E73846FFF7C8FF854203D0E5
:102DA000002CE6D18548E7E7296A854B994205D092
:102DB000002CDED1834802F001FC13E06B69039321
:102DC00003F032F8039BC0F34F0083420ED2002C75
:102DD000CFD16D6903F028F82946C0F34F027A4835
:102DE00002F0ECFB20460BB0BDE8F08F2B69B3F589
:102DF000F82F02D8EA68934203D2002CB9D1734865
:102E0000BAE719EB0B0918D218EB070215D2BD422D
:102E100013D3954211D209F1FF394F450DD84A45D8
:102E20000BD918EB0A082CBF4FF001094FF000092D
:102E300007D3002C9DD166489EE7002C99D16548A8
:102E40009AE7EA695245F4D34245F2D2B2450ED828
:102E5000B0450CD9DE19DFF8BCA106F1050B0DF168
:102E60001808B34508D1002C83D15B4884E7002CB7
:102E70007FF47FAF59487FE79AE8070088E80700AA
:102E80000C224146304602F0FAFD00B90EB9013677
:102E9000E7E7F268AB699A4204D0002C7FF469AF8F
:102EA0004F4869E72B69049302F00DFF014620B1FA
:102EB000002C7FF45EAF4B487DE700F019F9054622
:102EC00058B1002C7FF455AF0146474802F076FB1D
:102ED00071357FF44EAF45484EE7454A454BDFF824
:102EE00038A1002C08BF1A46DFF830B105920390D4
:102EF00000F0CCF8039B834204D3002C7FF439AF5D
:102F00003D4839E741461022039800F021F9102886
:102F1000014610D010F1160F08D11CB9039937489B
:102F200002F04CFB039B01330393E1E7002C7FF499
:102F300020AF33483FE754B95046039902F03EFBB7
:102F400058469DF827209DF8181002F037FB049B87
:102F500041460093059D3B4606F1700206F13000A4
:102F6000A8470146B0B9274E039B4B4507D1002C1B
:102F70007FF438AF244802F021FB012432E71CB96A
:102F80004946304602F01AFB484600F00BF909F1B9
:102F90000109E9E710F1650F05D1002CC2D11B48EA
:102FA00002F00CFBBEE7002C7FF4E3AE184802E70A
:102FB000BD6B0000DD6B0000106C00003D6C00007C
:102FC000FFFF0291666C00008D6C0000CD6C00006C
:102FD000296D0000FC6C0000826D0000556D000042
:102FE000B36D0000E66D0000066E00002A6E000062
:102FF000875C0000D55C00006E6F00005F6E000013
:10300000886E0000E76E0000FE6E00001D6F00007D
:10301000426F000038610000AB6E0000D16E00000E
:1030200038B50C460A46054601460D4802F0C6FA78
:10303000B4FA84F1490941EA450080B202F0F7FE92
:10304000044602F0BFFE20B9064802F0B7FA204657
:1030500038BD002CFBD02146034802F0AFFAF6E75A
:103060008E6F0000C26F0000EB6F0000024B18680B
:10307000BFF34F8F704700BF0081FF00024B5868BD
:10308000BFF34F8F704700BF0081FF00024B98686D
:10309000BFF34F8F704700BF0081FF0070B5FFF78F
:1030A000F5FF1423434311491944084602F080FEFA
:1030B000012802D00024204670BD0029FAD0002645
:1030C0000C1D0231084602F073FE8642F2D2A01CAB
:1030D00002F06EFE0546204602F06AFE0128EAD0A4
:1030E000023504EB45040136ECE700BF0C81FF001C
:1030F0002DE9F8430024134E134FDFF85080FFF7FB
:10310000C5FFA04202D80020BDE8F8831423634322
:10311000F218D268BFF34F8F12F5803F0CD04FF6F4
:10312000FF79DD1903EB0801284602F041FE48450E
:1031300004D002358D42F7D10134E0E76FF0700022
:10314000E2E700BF0081FF001081FF002081FF0047
:1031500070B51424444304F57F0303F50143054689
:103160000E46DB68BFF34F8F13F5803F0FD00F2A59
:1031700010D9FFF78BFFA8420FD90949102230461A
:10318000214402F08CFCBFF34F8F102070BD6FF014
:103190001500FBE76FF00B00F8E76FF00D00F5E7A7
:1031A0001081FF001423434303F57F0202F501421F
:1031B000D26812F5803F06D0BFF34F8F0248034913
:1031C000184400F0A3BA70470C81FF000000FFFF15
:1031D0002DE9F0430025214C214E54F8048CDFF8F2
:1031E000889085B0A84503D8002005B0BDE8F083DD
:1031F000636A96E807001F6801AB83E807000C22AA
:103200001946384602F03BFC90B98FB1636A2169D8
:103210001B681A6991420BD19A69A169914207D83A
:10322000E169914204D962695B6932EA03030AD019
:10323000276A67B10B4802F0C1F9404080F311885A
:103240004FF0040002DFE36801351C44CAE748463A
:1032500002F0B4F9636A1F60F5E700BF3C020000AA
:10326000446100000F700000387000002DE9F04F3D
:103270000F46064689B018B9002009B0BDE8F08FA6
:103280000023426B00F13C04934206D14FF0000949
:10329000B36B994505D30120EFE7E16801330C4496
:1032A000F2E74FF0000A2B4B0093009B4FF0000B0E
:1032B0001A4652F8043B0DF114080193264B009274
:1032C00053F8045BCDE90233019B1D44234B93E883
:1032D000070088E807000C224146284602F0CFFB91
:1032E000029B00B9ADB90BF1010BBBF1050FE7D1A2
:1032F0001B4B0AF1010A9A45D7D31FB10023626A1A
:10330000136013BB236A03B3B6E7DA6801301344D2
:1033100008E02B6A134A9342EAD1AE42E8D0696BC7
:1033200005F13C038842E3D025691A699542ECD146
:103330009A69A5699542E8D8E5699542E5D9626937
:103340005D69AA43E1D1002FD9D1E36809F10109F0
:103350001C449DE7807100001C6200005061000069
:1033600001000000FFFF0291026A044B9A4203D160
:103370000349203000F0CAB9704700BFFFFF029137
:103380000000FFFF054B1868043B1B68072B03D1A7
:10339000831E584258417047002070473401FF0097
:1033A0004FF05023D3F85825034B02F00302D340CB
:1033B000024A1360704700BF0020A1073C80002034
:1033C00008B5FFF7DFFF48B1304B1A6832B90D215D
:1033D00019600121A3F5827319601A600022D300DD
:1033E00003F57F03D3F80013013107D0D3F800139E
:1033F0000132D3F80433202A0B60F0D1FFF7C2FF6B
:1034000000283CD1FFF7BEFF38B1214B214A1A609A
:103410004FF050230122C3F85825FFF7B3FF10B136
:1034200000221D4B1A60FFF7ADFF50B14FF0502343
:10343000D3F80024D10742BF0022C3F81421C3F8F7
:103440001821FFF79FFF48B14FF05023D3F8002415
:10345000D20744BF6FF00102C3F80024FFF792FFC8
:1034600010B165220D4B1A600D4AD2F88C3043F42E
:103470004063C2F88C30BDE80840FFF791BF2922B5
:10348000064B1A6003221A63BCE700BF204A0050B3
:10349000309503504400EFBE4C2503500C470050BC
:1034A00000ED00E0044B1A7922B9012218601A716C
:1034B00002487047024870477C8700200000AD0B2F
:1034C0000C00AD0B032847D8DFE800F002222D3AAC
:1034D0004FF05022D2F81834D2F81814C90311D57D
:1034E00003F00303022B0DD1C2F8183500221B4B49
:1034F0001A601B6802224FF05023C3F804230122F4
:103500009A6070474FF050230122C3F81825EDE769
:103510000022134B1A601B6801224FF05023C3F89E
:1035200004231A60704700220E4B1A601B684FF488
:1035300000724FF05023C3F8042301221A6270472F
:103540000022094B1A601B684FF480724FF0502321
:10355000C3F8042301229A61704700BF0451005050
:1035600000510050245100502051005070B50446C5
:1035700003283ED8DFE800F002223E4B4FF05023F4
:103580000222C3F80823002203F582731A601B6825
:10359000284B012242F210754FF050261A60022C7F
:1035A00042D0032C43D024BBD6F81834DB0320D5FB
:1035B000012002F068FC013DF1D11AE001234FF037
:1035C0005024002142F210751B4AC4F808331160E0
:1035D00012681A4A1360D4F80C34D4F80C2403F09F
:1035E0000103D20305D523B1012002F04CFC013DBB
:1035F000F1D170BD4FF050234FF40072C3F808238F
:10360000002203F592731A601B680D4BC1E74FF05F
:1036100050234FF48072C3F80823002203F59073FF
:103620001A601B68074BB4E7D6F85C34BEE7D6F8DF
:103630005434BBE70C50005000510050045000506F
:10364000245000501C500050264B10B51A6852B13F
:10365000002018601B6801224FF05023C3F8082394
:10366000214B1B689847214B1A688AB100221A60C7
:103670001B684FF05023D3F81824D3F8181402F025
:103680000302012A4FF0020124D1C3F818159A60F1
:10369000174B1A6862B100221A601B684FF48072DF
:1036A0004FF05023C3F808230F4B04201B689847A2
:1036B000104B1A68AAB1BDE8104000221A601B68BE
:1036C0004FF400724FF05023C3F80823064B052037
:1036D0001B681847C3F80813034B01201B68984761
:1036E000D6E710BD005100507C87002004510050E7
:1036F00020510050245100500022034BC3F8842570
:10370000C3F80425704700BF009003500122074B07
:10371000C3F88425C3F80425D3F80024D207FBD5C9
:103720000160BFF35F8FFFF7E7BF00BF009003505A
:10373000F8B5104B104F53F82050013053F820606B
:10374000AE4200D8F8BDD5E900342046984770B1A4
:103750006CB10123E41B094A2411610952F82100CC
:1037600004F01F0403FA04F4044342F8214008352E
:10377000E6E700BF30620000A8800020E88000205B
:10378000084BC01A0011084B420953F822200123AC
:1037900000F01F0003FA00F010420CBF1846002092
:1037A000704700BFA8800020E8800020114970B554
:1037B00005460E46104C8C4204D10F4CB4420AD13F
:1037C000002414E02046FFF7DBFF10B12368AB4272
:1037D0000DD01034EFE72046FFF7D2FF08B91034C0
:1037E000ECE72846216802F03EF90028F7D1204690
:1037F00070BD00BFE8800020A8800020F7B5044617
:103800000E464FF02003EFF3118783F31188BFF3C7
:103810006F8F00F0A3FB0022042C98BF194B0546C4
:1038200094BF53F82430184B009245212246174884
:1038300001F0C4FE3EB1F369C3F308031BB1452197
:10384000134801F0BBFE284602F006FC0346B8B15F
:103850000178104A002908BF13462A4645210E4820
:1038600001F0ACFE31462046FFF7E8F987F31188F6
:10387000BFF36F8F284603B0BDE8F040FFF73EB8B6
:10388000044BEAE748620000767000008C7000008C
:10389000B970000084700000DF7000000248034A25
:1038A0000021121A02F026B940810020CC870020A6
:1038B00008B50648064A0749121A02F0F0F8BDE8B2
:1038C0000840054A0549064802F0E9B80080002092
:1038D0003C8100208C710000000000008C71000011
:1038E00000800020012208B50A4B02201A70FFF761
:1038F0001FFF094A09490A4801F060FE0320FFF74B
:1039000017FFFDF7C1FE074A137B23F00103137372
:1039100008BD00BFC8870020DE70000046710000AF
:10392000567100004081002008B5144B03F5006279
:1039300082F3088883F30A880025E023104C84F87A
:103940002230E57725766576A576636A43F4E02331
:103950006362FEF7A7FFFEF75DFD4FF0FF332846D9
:10396000A362E362FFF7E4FE0120FFF7E1FE2B46CE
:103970002A4629460348FEF735FD00BFD08F0020B8
:1039800000ED00E0E538000070B50E4B0E4CA34290
:1039900001D3002070BDD3E9030141EA000212F017
:1039A00003020BD19D685A61AA4201D11C33EEE794
:1039B0005E6901320E6059610144F5E76FF0150050
:1039C000E8E700BFEC800020EC800020D3B50C4677
:1039D00016461F464FF02003EFF3118183F3118841
:1039E000BFF36F8F43695BB123601B6843618369D9
:1039F00001338361002081F31188BFF36F8F11E0E1
:103A000056EA070203D16FF00B002360F3E702468A
:103A1000CDE90067044800F03BFA18B9034B9B68F6
:103A20005B69236002B0D0BDC98700208487002075
:103A300070B504460D464FF02003EFF3118683F373
:103A40001188BFF36F8F02F0DAFA58B100212A68AB
:103A50008167426102F078FA3146BDE8704008485B
:103A600000F0CCB82B6862691A602B686361A369A7
:103A7000013BA36186F31188BFF36F8F70BD00BF58
:103A8000C98700202DE9F341044616461F464FF032
:103A90002003EFF3118883F31188BFF36F8FC3689E
:103AA000324A6BB180689168884219D056EA0703A0
:103AB00018D188F31188BFF36F8F6FF00F000CE0FF
:103AC000916891F90E100133E36093682161A3605E
:103AD00088F31188BFF36F8F002002B0BDE8F0813A
:103AE0002169F0E790F90E3091F90E109942A8BFC4
:103AF000194621EAE1718B422CDD00F0D9F9054627
:103B000022464146CDE90067194800F0C1F9002876
:103B1000E3D04FF02003EFF3118683F31188BFF356
:103B20006F8F23682169A34207D033B193F90E3018
:103B30009942A8BF194621EAE171A06890F90E30B8
:103B4000994209D16DB13146094800F057F86FF03C
:103B50000A00C2E70025D3E700F0AAF90028F2D155
:103B6000F0E786F31188BFF36F8FF0E784870020BA
:103B7000C987002038B583680446002B33D01D4A1E
:103B80009268934232D1C368012B05D0013BC360D8
:103B900002F0C3F9002038BD4FF02003EFF3118588
:103BA00083F31188BFF36F8F0169806890F90E303D
:103BB000994201D000F07CF9204602F020FAA06082
:103BC00058B190F90E2022610022826702F0BCF900
:103BD0002946094800F012F8DAE7E06085F3118819
:103BE000BFF36F8FD4E76FF01500D4E74FF0FF30CD
:103BF000D1E700BF84870020C987002049B9EFF3CF
:103C0000058030B9054BDA699B689A4201D0FEF70E
:103C10005FBB81F31188BFF36F8F704784870020EB
:103C2000094B03F12002824205D19B688B4202D1ED
:103C30004B7BDB0606D1D1E9003213605A600023CA
:103C4000C1E90033704700BF848700200D4A10B5DA
:103C5000044602F1200002F06DF99368597B11F0DF
:103C6000200F1CBF41F00801597300B9D06834B966
:103C7000597BC90603D18169002908BF1846D06164
:103C800010BD00BF8487002070B4437BDB062AD1BF
:103C9000836943BB154A114651F8204F8C4218BF27
:103CA0002346002B38BF0023546AB3B190F90E604D
:103CB00093F90E50AE4203DBA3420ED01B68F4E72B
:103CC0005A68C0E9003210605860437B63F07F039C
:103CD000437370BC0020FFF7B9BFC0E90014536AFA
:103CE00018605062F1E770BC704700BF8487002005
:103CF00070B50446183002F0B1F94FF02003EFF32D
:103D0000118683F31188BFF36F8F94F90D30002B68
:103D100007DA21460E48FFF783FF637B03F07F033A
:103D200063730C4D637BA86843F010036373031B3C
:103D300058425841FFF78AFF86F31188BFF36F8F0F
:103D4000AB68A34203D1BDE8704002F0DCB870BD9F
:103D5000A487002084870020036E2DE9F0410446EB
:103D600003B1984704F1180002F078F94FF02003EE
:103D7000EFF3118683F31188BFF36F8F637BD8064F
:103D800023D1A2690ABB190607D521461E48FFF7B1
:103D900047FF637B03F07F0363731C4B9868021B30
:103DA00050425041FFF752FF0027637B04F1300877
:103DB00043F008036373256B454500D095B986F33E
:103DC0001188BFF36F8FBDE8F0819B07ECD52146CA
:103DD000A068FFF725FF637B23F0020363730023D2
:103DE000A360E1E705F1180002F038F9A868294658
:103DF000FFF716FF6B7B284623F002036B73AF605F
:103E0000AF67FFF741FFD6E7A48700208487002033
:103E100008B590F90D300146002B06DA0748FFF788
:103E2000FFFE4B7B03F07F034B73054B9868431AEF
:103E300058425841BDE80840FFF708BFA48700205A
:103E4000848700202DE9F041064614461D464FF0B8
:103E50002003EFF3118783F31188BFF36F8F02F014
:103E6000A3F887F31188BFF36F8F6B1C08BFB4F101
:103E7000FF3F08D022462B4606F118000349BDE853
:103E8000F04100F0B5B8BDE8F08100BF695F000007
:103E900010B50C4605481146DDE902238068FFF79E
:103EA000D1FF2046BDE81040FEF712BA84870020FB
:103EB0002DE9F04104464FF02003EFF3118883F31E
:103EC0001188BFF36F8F437B4EB2DB062ED185691D
:103ED00065BB184F214607F12000FFF7A1FE3B6AA2
:103EE0007A6A834218BF1D46002D38BF0025A6738D
:103EF000B5B195F90E10B14203DCAA4210D02D687D
:103F0000F6E76A68C4E9005214606C600120FFF7AC
:103F10009DFE012088F31188BFF36F8FBDE8F0810B
:103F2000C4E900027B6A1C607C62EFE70020A67394
:103F3000F0E700BF84870020013108BFB0F1FF3FE8
:103F400008B506D1044B9868FFF7D2FE4FF0FF305A
:103F500008BD0020FCE700BF84870020014B986863
:103F6000704700BF84870020034B1B680BB9FEF726
:103F7000FBB80020704700BFAC87002030B5036855
:103F800068B10A4A5268904209D043B1D3E904218A
:103F9000D0E90445121945EB0101C3E90421426847
:103FA00013605A600023C0E9003330BD4080002018
:103FB00038B50E4B1C689C4208BF0024FFF7D4FFA5
:103FC00005467CB1D4E90401401B61EBE571B0F119
:103FD000004F71F1000305DA002871F1000300DAE7
:103FE000002038BD6FF00040FBE700BF408000209C
:103FF0002DE9F74F019119464B1C08BFB2F1FF3F65
:1040000082466BD06FF001034FF0FF3B541C41F12F
:104010000005B3EB04086BEB0509B8F1000F79F16B
:1040200000030FDBFFF7A0FF6FF00103324AD2E974
:10403000001C5B1A6BEB0C021E1B62EB0507341AAB
:1040400067EBE075019BCAF808304FF02003EFF3EF
:10405000118683F31188BFF36F8FFFF785FF012C63
:1040600075F10003BCBF01240025244B24181A68F5
:1040700045EBE0759A42CAE9044501D05F6852B940
:104080005A68CAF80030CAF804205A68C2F800A07A
:10409000C3F804A014E0D2E90489DAE904454445F0
:1040A00075EB09011DDAB8EB040069EB0501C2E903
:1040B00004015168CAE90021C1F800A0C2F804A0B7
:1040C0001A689A4206D0924504D1FFF771FF002189
:1040D000FDF7E4FF86F31188BFF36F8F03B0BDE8EF
:1040E000F08FB4EB080065EB0901BA42CAE904019C
:1040F000C6D01268C3E700BFC08100204080002006
:104100002DE9F74F4FF02003EFF3118483F311886B
:10411000BFF36F8FDFF8ACA0294D5146DFF8A8B090
:104120002860D5F800C0DBF800006246DAE90089B3
:10413000D3175845CDE900230DD060B1D0E904670D
:10414000B445BB411DDA009BB6EB030C019B67EB4A
:104150000306C0E904C60026009B2E6013EB08028C
:10416000019B43EB0903C1E90023FFF721FF31461F
:10417000FDF794FF84F31188BFF36F8F03B0BDE8A0
:10418000F08F0022002318EB060849EBE679C0E91E
:104190000423ACEB0606CAE900892E60FFF7EEFEA9
:1041A00084F31188BFF36F8F836898474FF0200323
:1041B000EFF3118483F31188BFF36F8F0149B0E7E8
:1041C000AC870020C08100204080002038B5064C1C
:1041D000064DAC4201D3002038BD2046D4E901127F
:1041E00001F052FF1434F4E7EC800020EC80002052
:1041F000F0B5E9B005460F4600F1200118A81646B3
:1042000000F092F918A9044620A800F0D5F9394623
:1042100010A800F089F910A920AA084600F0BEF9FC
:10422000294608A800F080F9034620AA684608A994
:104230001C4300F0B3F910A948A801F065F8314615
:10424000054638A800F07EFF03466A4638A958A8FC
:104250001C4300F0A7FF034648AA58A930A81C43F6
:10426000FCF7E6FB30A90846FCF74CFC48AA58A925
:1042700028A8FCF749FC30A9084628AAFCF716FC38
:1042800030A90846194AFCF711FC50AA28A860A9D1
:10429000FCF7CEFB28A9084600F060F828A930AA50
:1042A0000846FCF731FC28A90846FCF72BFC48AA75
:1042B00028A930A8FCF7FAFB30A958AA0846FCF751
:1042C000F5FB684630A900F059F968466A4258A9DA
:1042D000FCF760FA6846202208A9FCF779FB013850
:1042E000204340F3000069B0F0BD00BF5C620000F5
:1042F00070B588B004460D46684620211646FCF786
:1043000091FB00232946204620220093FCF782FBE4
:104310002A4669466846FCF7C9FB3246694620468C
:10432000FCF738FA08B070BD0B681BBAC3614B6864
:104330001BBA83618B681BBA4361CB681BBA0361EC
:104340000B691BBAC3604B691BBA83608B691BBACC
:104350004360CB691BBA0360704700BF70B50C4661
:10436000052698B0054610A8FCF7CCFB2246684607
:1043700010A9FCF7C9FB694610A8FCF7C3FB10A9FC
:104380000846FCF7BFFB6A4610A908A8FCF7BCFB6F
:1043900008A910A8FCF7B6FB10A90846FCF7B2FB69
:1043A00010A90846FCF7AEFB10A90846FCF7AAFBCB
:1043B00010A908AA0846FCF7A7FB10A90846FCF7B5
:1043C000A1FB10A90846FCF79DFB10A96A4608A8A6
:1043D000FCF79AFB08A910A8FCF794FB10A9084663
:1043E000FCF790FB013E10A9F5D1084608AAFCF79E
:1043F0008BFB052610A90846FCF784FB10A908468C
:10440000FCF780FB013EF5D110A908AA0846FCF78D
:104410007BFB10A908A8FCF775FB08A90846FCF768
:1044200071FB08A96A466846FCF76EFB10266946D0
:1044300010A8FCF767FB10A90846FCF763FB013ED8
:1044400010A9F5D122460846FCF75EFB402610A9CC
:104450000846FCF757FB10A90846FCF753FB013E42
:10446000F5D110A96A460846FCF74EFB102610A9A4
:104470000846FCF747FB10A90846FCF743FB013E42
:10448000F5D110A96A460846FCF73EFB102610A994
:104490000846FCF737FB10A90846FCF733FB013E42
:1044A000F5D110A9084608AAFCF72EFB224628469B
:1044B00010A9FCF729FB18B070BD00BFF0B5144679
:1044C00005460F46A1B011466846154AFCF7AEF9FD
:1044D000144E08A922460846FCF7B0F8324608A94F
:1044E00010A8FCF7A3F9189B2468394610AA28469F
:1044F000E41AFCF7C3F80346294632462846E41A74
:10450000FCF7BCF8241AE24331462846D20FFCF7E8
:1045100003F93146021B2846FCF7D0F821B0F0BD64
:104520007C6200009C6200000B4670B50A68124E67
:1045300012BAC2614A68014612BA82619A68044698
:1045400012BA4261DA6812BA02611A6912BAC2601A
:104550005D6932462DBA85609D692DBA4560DB697B
:104560001BBA0360FCF78AF80546314620462A4606
:10457000FCF7A4F8681E70BD9C62000038B5064DBB
:1045800004462A46FCF77AF8294602462046BDE84A
:104590003840FCF793B800BF9C62000010B5044699
:1045A00090B06846FCF742F92046694608AAFFF732
:1045B00085FF10B010BD00BFF0B50D46A1B00A4692
:1045C000044610A8FCF732F910A918AA08A8FFF7AA
:1045D00075FF2A4608A910A8FCF728F9684618AA0A
:1045E00010A9FFF76BFF6A46694610A8FCF71EF991
:1045F00018AA10A908A8FFF761FF08AA114610A879
:10460000FCF714F918AA10A908A8FFF757FF6A4683
:1046100008A910A8FCF70AF9684618AA10A9FFF71C
:104620004DFF6A46694610A8FCF700F918AA10A9C0
:1046300008A8FFF743FF08AA114610A8FCF7F6F8F0
:1046400018AA10A908A8FFF739FF08AA114610A850
:10465000FCF7ECF818AA10A908A8FFF72FFF08AA82
:10466000114610A8FCF7E2F818AA10A908A8FFF74D
:1046700025FF6A4608A910A8FCF7D8F818AA6846CA
:1046800010A9FFF71BFF02266A4600E0012611462B
:1046900010A8FCF7CBF818AA10A908A8FFF70EFF7E
:1046A00008AA114610A8FCF7C1F818AA10A908A872
:1046B000FFF704FF08AA114610A8FCF7B7F818AADC
:1046C00010A908A8FFF7FAFE08AA114610A8FCF7DF
:1046D000ADF818AA10A908A8FFF7F0FE012E08AA45
:1046E000D4D16A4608A910A8FCF7A0F818AA684611
:1046F00010A9FFF7E3FE04266A46114610A8FCF74E
:1047000095F818AA10A908A8FFF7D8FE08AA11461C
:1047100010A8FCF78BF818AA10A908A8FFF7CEFE7E
:1047200008AA114610A8FCF781F818AA10A908A831
:10473000FFF7C4FE08AA114610A8FCF777F818AADC
:1047400010A908A8FFF7BAFE013E08AAD5D16A460B
:1047500008A910A8FCF76AF818AA684610A9FFF77C
:10476000ADFE10266A46114610A8FCF75FF818AA9D
:1047700010A908A8FFF7A2FE08AA114610A8FCF786
:1047800055F818AA10A908A8FFF798FE08AA11461C
:1047900010A8FCF74BF818AA10A908A8FFF78EFE7E
:1047A00008AA114610A8FCF741F818AA10A908A8F1
:1047B000FFF784FE013E08AAD5D16A4608A910A8D1
:1047C000FCF734F818AA10A908A8FFF777FE082606
:1047D00008AA114610A8FCF729F818AA10A908A8D9
:1047E000FFF76CFE08AA114610A8FCF71FF818AADC
:1047F00010A908A8FFF762FE08AA114610A8FCF746
:1048000015F818AA10A908A8FFF758FE08AA11461B
:1048100010A8FCF70BF818AA10A908A8FFF74EFE7D
:10482000013ED5D16A4608A910A8FBF7FFFF204634
:1048300018AA10A9FFF742FE20273E4E01E0013FD3
:1048400019D02246214610A8FBF7F0FF204618AAEF
:1048500010A9FFF733FE002E4FEA4606EFDA2A468C
:10486000214610A8FBF7E2FF204618AA10A9FFF77F
:1048700025FE013FE5D120272F4E01E0013F19D051
:104880002246214610A8FBF7D1FF204618AA10A9FE
:10489000FFF714FE002E4FEA4606EFDA2A462146BD
:1048A00010A8FBF7C3FF204618AA10A9FFF706FEC1
:1048B000013FE5D12027214E01E0013F19D02246DA
:1048C000214610A8FBF7B2FF204618AA10A9FFF74F
:1048D000F5FD002E4FEA4606EFDA2A46214610A8DB
:1048E000FBF7A4FF204618AA10A9FFF7E7FD013F38
:1048F000E5D12027124E01E0013F19D02246214682
:1049000010A8FBF793FF204618AA10A9FFF7D6FDC1
:10491000002E4FEA4606EFDA2A46214610A8FBF79A
:1049200085FF204618AA10A9FFF7C8FD013FE5D171
:1049300021B0F0BDADFAE6BC849E17A7C2CAB9F398
:104940004F2563FC2DE9F04F3F2A9BB0019240F2C6
:10495000AD800C460546A2F1400020F03F004030FB
:104960002018D5E902BA0090D5E906C35846D5E922
:104970000012D5E9049E9B46DFF8448123686768EE
:104980001BBAA66802910392E16822690490CDF8EF
:1049900014A06069D4F818A0CDF81890CDF81CE0E8
:1049A000D4F81C90D4F820E0CDF820C0CDF824B085
:1049B000D4F824C0D4F828B00A93E36A9EFA8EFE95
:1049C0003FBA36BA09BA12BA00BA9AFA8AFA99FA0A
:1049D00089F99CFA8CFC9BFA8BFB1BBACDE912EC93
:1049E000CDE90C61CDE90E20CDE910A9CDE914B3D4
:1049F0000B97D4F830C0676BA66BE36B9CFA8CFC0A
:104A00001BBA02AA0AA940463FBA36BACDE916C770
:104A1000CDE91863FCF72CFA0AA8FCF74FFB02AAB1
:104A20000AA92448FCF724FA0AA8FCF747FB02AAC3
:104A30000AA92148FCF71CFA0AA8FCF73FFB1F480B
:104A400002AA0AA9FCF714FA6A68039B2E681A44A2
:104A5000EB68A8689C46059B049F0CEB030A2B6936
:104A600002999C46069B31440CEB03096E69079B37
:104A70003844AF6906EB030EDDE9086307EB060C6B
:104A8000EE69403406EB030B009BC5E900129C4223
:104A9000C5E9020AC5E9049EC5E906CB7FF46EAFFD
:104AA000019B03F03F001BB0BDE8F08F10461BB028
:104AB000BDE8F08FFC6200003C6300007C630000F6
:104AC000BC620000F0B504460B688F68CE6899B0F0
:104AD0001BBA0D6948698A6908933FBACB6936BA2F
:104AE0000A970B966768A668D1F804C02DBA00BA79
:104AF00012BA1BBA0C950D90E56820690E920F93BF
:104B00006269A36901970296E76926689CFA8CFCA2
:104B1000CDE90350CDE90523CDF824C007970096D1
:104B20000B6ACF6A086B8A6B1BBA2D4DD1F824E053
:104B3000D1F828C04E6B1093CB6B3FBA11BA00BAB4
:104B40009EFA8EFE9CFA8CFC1BBA6A46CDE9137065
:104B50001691284608A936BA1793CDE911EC159697
:104B6000FCF786F908A8FCF7A9FA6A4608A905F136
:104B70004000FCF77DF908A8FCF7A0FA6A4608A9EE
:104B800005F18000FCF774F908A8FCF797FA6A466B
:104B900008A905F1C000FCF76BF9D4E9026560686B
:104BA000019927684318009A0299206917440E4416
:104BB000039A0499154408446269059927601144D1
:104BC000C4E904010020A769069A63603A44E369D6
:104BD000079FC4E902653B44C4E9062319B0F0BD50
:104BE000BC620000002330B409490A4D0A4C0B4A4C
:104BF000056044600A4D0B4C8160C2600A490B4A53
:104C0000C0E9045430BCC0E90612C0E9183370474B
:104C100072F36E3C67E6096A85AE67BB3AF54FA54D
:104C20007F520E518C68059BABD9831F19CDE05B79
:104C30002DE9F843D0E91853134407461446884633
:104C40004366F5B13F2D00F2A980DAB105F12006E7
:104C5000C5F140090B460644894402E0002C00F0EF
:104C60008480013313F8011CA3EB08024B4504F1C7
:104C7000FF3406F8011B2A44F0D1402A79D01546AA
:104C8000C84614B93D66BDE8F88322464146384619
:104C9000FFF758FE221A054642440028F2D0231D91
:104CA0001B1A434407F1200107F12400824238BF58
:104CB000994269D36B1E072B66D91168AB0839621C
:104CC0005168022B796235D09168032BB96231D0DB
:104CD000D168042BF9622DD01169052B396329D0D5
:104CE0005169062B796325D09169072BB96321D0CF
:104CF000D169082BF9631DD0116A092B396419D0C9
:104D0000516A0A2B796415D0916A0B2BB96411D0C2
:104D1000D16A0C2BF9640DD0116B0D2B396509D0BC
:104D2000516B0E2B796505D0916B0F2BB9651CBFAC
:104D3000D36BFB6525F003039D4202EB0300A1D07A
:104D4000D45C5A1CF918954281F820409AD94178D0
:104D500002333A449D4282F8201093D982783B4432
:104D600083F820203D66BDE8F88315463D66BDE822
:104D7000F883384607F12001FFF7A4FEC846054630
:104D8000002C3FF47FAF80E7444407F11F0312F883
:104D9000011BA24203F8011FF9D173E72A46894695
:104DA0006BE700BFF0B504468020226E83B0531C31
:104DB0000D460191382B04EB020181F8200079D8CF
:104DC00004F12007C3F13A02022AC3F13B0131D9B1
:104DD0000026880803F120020128A650224424D08E
:104DE0000228566021D0032896601ED00428D66081
:104DF0001BD00528166118D00628566115D0072843
:104E0000966112D00828D6610FD0092816620CD0FE
:104E10000A28566209D00B28966206D00C28D66262
:104E200003D00E28166308BF566321F003028A429E
:104E3000134411D00022E1183A2B81F8202003F10D
:104E4000010109D02144392B81F8202003F102010E
:104E500002D0214481F82020636E3946580F5A0D44
:104E600084F85B0084F85C20580B5A09DB0084F856
:104E70005D0084F85F30204684F85E20FFF722FE54
:104E800023681BBA2B6063681BBA6B60A3681BBAEC
:104E9000AB60E3681BBAEB6023691BBA2B616369E3
:104EA0001BBA6B61A3691BBAAB61E3691BBAEB6107
:104EB00003B0F0BD3F2B2AD8002123443E2A83F8BB
:104EC000201002F1020322D023443D2A83F820104F
:104ED00002F103031BD023443C2A83F8201002F183
:104EE000040314D023443B2A83F8201002F1050365
:104EF0000DD023443A2A83F8201002F1060306D08D
:104F00002344382A83F8201001D184F85F1004F17B
:104F1000200739462046FFF7D5FD3A280346019081
:104F20007FF650AF98E700BF2DE9F04106460C46EA
:104F3000904688B0684602F1200106F12007FBF791
:104F4000E1FD6A4669466846FBF772FD38466946E8
:104F5000FBF7D8FD3A463946384604F12005FBF701
:104F600067FD6A4669466846FBF762FD284641468A
:104F7000FBF7C8FD6A4641463046FBF7C5FD2A46A9
:104F800029466846FBF754FD2A4669466846FBF702
:104F90004FFD69466846114AFBF74AFD69462046BF
:104FA000FBF7B0FD324621462046FBF77FFD324637
:104FB00021462046FBF77AFD224631462846FBF77C
:104FC00075FD6A4629462846FBF79EFD3A46294666
:104FD0002846FBF76BFD08B0BDE8F0813C6400009B
:104FE000F0B504460D4699B00A4601466846FBF7FF
:104FF0005DFD69466846FBF785FD21466A4608A8BF
:1050000005F1200604F12007FBF77EFD6A462946DC
:105010006846FBF779FD3946324610A8FBF708FDD4
:10502000324639463046FBF741FD31462846FBF70C
:1050300069FD6A46204608A9FBF7FAFC2246294684
:105040002846FBF733FD6A46684608A9FBF72EFDA4
:105050006A4639463846FBF757FD2A46684608A98E
:10506000FBF724FD6A4631463046FBF74DFD3A46D4
:1050700031463046FBF71AFD684610A9FBF742FDA2
:10508000224669462046FBF711FD08A9224608463C
:10509000FBF70CFD10A9084608AAFBF735FD3A46B8
:1050A000384610A9FBF702FD19B0F0BD2DE9F0411B
:1050B00005460C46904688B00A4601466846FBF70E
:1050C000F5FC69466846FBF71DFD6A4629462846F9
:1050D00004F12006FBF718FD05F120076A4621467A
:1050E0006846FBF711FD324630463946FBF7DEFCD9
:1050F00031462046FBF706FD2A4621462046FBF7AF
:10510000D5FC6A4621462046FBF7D0FC6A46294674
:105110004046FBF7CBFC424639463846FBF7F4FCE9
:10512000224629466846FBF7C1FC6A4631463046AE
:10513000FBF7EAFC3A4631463046FBF7B7FC08B0CD
:10514000BDE8F08170B50D46044690B000F1200630
:10515000FFF7EAF8304605F12001FFF7E5F82146B0
:1051600008A8FBF7CFFC08A908460C4AFBF760FC2F
:1051700008A922460846FBF7C7FC08A90846084AC2
:10518000FBF756FC31466846FBF7BCFC694620221B
:1051900008A8FBF71DFC013810B070BD3C6400008E
:1051A0005C6400002DE9F047B8B08A46814611469C
:1051B00010A8514AFBF762FA5049024610A8FBF7C3
:1051C0007DFA8046179F4C4908EAD777C7F101025C
:1051D00010A8FBF773FA179C5246E44328A918A8B5
:1051E000FFF7A2FEE40F20A90846C4F10102FFF771
:1051F0007FF8FE25C8F1010826466A4618A928A8A6
:10520000FFF754FF6B1138AA02EB830353F8A04C4D
:1052100005F01F03DC4004F001046640324628A973
:1052200018A8FBF7B7FA324630A920A8FBF7B2FA64
:10523000013D28A918A8FFF7D3FE6B1CDCD1C4F1EF
:10524000010208A820A9FFF753F87C406A4618A974
:1052500028A8FFF72BFF224628A918A8FBF79AFADF
:10526000224630A920A8FBF795FA08A96A46084605
:10527000FBF74AFC08A90846FFF770F808A909F1EE
:10528000200408460AF12002FBF73EFC204620A934
:1052900008AAFBF739FC08AA684618A9FBF734FCF2
:1052A00069466846FBF72EFC18AA694608A8FBF772
:1052B0002BFC21466846FBF725FC08AA69461046E8
:1052C000FBF7F4FB68460E4A08A9FBF7EFFB204604
:1052D0002021FBF791FB08A943420246684643EAB6
:1052E0000808FBF757FA48466946064AFBF70CFCE4
:1052F000404638B0BDE8F0877C640000FC630000E5
:105300005C6400001C6400000A460149FFF74ABFC4
:10531000BC63000010B50A4C23681BB101230020B8
:10532000236010BD00F098F80028F7D00138072856
:1053300003D8044B53F8200010BD034810BD00BF34
:10534000B08700209C640000FE8FFFFFBFF34F8FEB
:105350000549064BCA6802F4E0621343CB60BFF311
:105360004F8F00BFFDE700BF00ED00E00400FA052D
:10537000014B5B68184700BF48800020024BD0E912
:105380000012C3E9001270474880002048B143680A
:105390002BB1BFF35F8F00230360184670470248AC
:1053A00070476FF4E0407047EA8FFFFF10B5044686
:1053B00028B1636813B100232360636010BD024B02
:1053C00002485B689847F4E748800020BC6400000E
:1053D00010B5044630B100226368226043F0010337
:1053E000636010BD0148FFF7C3FFF4E7E464000009
:1053F00080B1436863B10122D0E8EF3FC0E8E12FFC
:105400000029F9D1012BF7D0BFF35F8F002070473F
:10541000024870476FF4E040704700BFEA8FFFFF1B
:1054200070B40B4B0668C268D0E90154C3E902426C
:10543000C3E90065D1E903020E68064BD1E90154C6
:10544000C3E90065C3E902401A6170BC704700BF40
:10545000588000206880002008B500F00FF828B9B7
:1054600000F00EF830B9044A106008BD00F036F8BC
:10547000032008BD042008BD0C5A8450002070474A
:1054800010B5114800F048F800B110BD0F4800F009
:1054900043F80028F9D10E4C204600F03DF80028D2
:1054A000F3D10C4B0C481C6000F036F80146002884
:1054B000EBD100F02DF8044608B1204610BD00F0F5
:1054C0003FF82046FAE700BFA0800020948000202B
:1054D0009C800020A48000209880002008B5084807
:1054E00000F024F8074800F021F8074800F01EF803
:1054F000064800F01BF8BDE8084000F00BB800BFFC
:10550000A0800020948000209C80002098800020B3
:1055100000207047704700BF08B5034B02681B6846
:1055200010689847002008BD5880002008B5034B3C
:1055300002685B6810689847002008BD588000200A
:1055400070B5094C094D2069AB68984718B1084BF4
:1055500008485B6898470021074AEB68116020699A
:10556000BDE87040184700BF6880002058800020C8
:105570004880002008650000C4870020034658B119
:10558000426802F00302012A03D0032A04D1026810
:1055900012B10020986070476FF0150070474268A4
:1055A000034602F00302032A4FF00002816014BF99
:1055B000104600685A607047002070470FB407B566
:1055C00004A951F8040B0191FCF71CFA03B05DF833
:1055D00004EB04B07047038B13F0070305D1036895
:1055E000002B0CBF002003207047022B05D1438BFA
:1055F000002B14BF002004207047012B05D1036845
:10560000002B0CBF002005207047002070472DE9BB
:10561000F0410D4607461946281D90461E46FFF7E5
:10562000BEFF044638B13346424629463846A446B2
:10563000BDE8F0416047BDE8F08110B44FF02004B0
:10564000EFF3118284F31188BFF36F8F416110BCB7
:105650000121FCF7E5B910B50C4640B139B1081D80
:10566000FFF78CFF28B9A36833F0030301D06FF074
:10567000150010BD38B50C46054658B151B10B6840
:1056800043B14B6833B11C22002100F033FA0020F3
:105690002C6138BD6FF01500FBE770B504460E466F
:1056A000FFF7D9FF051E31DB4FF02003EFF3118127
:1056B00083F31188BFF36F8F4FF6FF75638B208BD9
:1056C000AB4200F007022ED0022A0ED101336383D1
:1056D0001546012381F31188BFF36F8FB3B1002307
:1056E00031462046FFF793FF10E0830701D0062ADA
:1056F0000ED100233360636893B9C4E90066154690
:1057000062B90A4620460221FCF78AF9284670BD94
:10571000052A0CBF6FF022056FF004050023D9E7BE
:105720001E606660EBE76FF00A05F7E7836800EB41
:10573000C101B3F5004F2CBF51F8220031F812001F
:10574000704700EBC1018068B0F5004F2CBF41F8F5
:10575000223021F812307047012208B5FFF7E6FF2A
:10576000400808BD836800EBC101B3F5004F08D3C2
:105770004B681AB143F001034B60704723F00103FB
:10578000FAE74B881AB143F001034B80704723F0CE
:105790000103FAE753000122FFF7D3BF806801310C
:1057A000B0F5004F2CBF02200120081AB0FA80F09B
:1057B000C0F11F0070472DE9F04104460D46FFF788
:1057C000CBFFA3680146B3F5004F01D3012835D0C4
:1057D0002046FFF7E3FF04EB800216699EB9012320
:1057E00003FA00F0E36829460343E36020461561AD
:1057F0002B460222FFF7A5FF032229462046BDE8DB
:10580000F041FFF79EBF022231462046FFF78EFF90
:1058100007460346022229462046FFF792FF3346F9
:10582000032229462046FFF78CFF032239462B46E8
:105830002046FFF786FF02223146DFE7BDE8F08110
:10584000B2F5802FF8B52CBF082504250023551B81
:105850000022CC1D24F007040460C4E900230023C7
:105860000D4425F007052D1BED0829462046A560AF
:10587000E360FFF793FF8600411C18461B36F608CD
:1058800004F110028B4229DB324620460021FFF74B
:1058900081FFAF1B204601220021FFF763FF3A463C
:1058A0003146FFF777FF3346314620460022FFF7A7
:1058B00048FF294620460022FFF76CFF3B46294659
:1058C00020460022FFF73DFF294620460122FFF730
:1058D00049FF3146BDE8F840FFF76DBF42F8040BC1
:1058E0000133CFE77047FDF76BBD4FF47F0345F2FF
:1058F0004032D3F80C12914207D1D3F8100210F1C4
:10590000BE3F14BF00200120704700207047CBB27B
:105910000C21C26803FB0121C86D00F0070070472D
:105920004FF02003EFF3118283F31188BFF36F8FE1
:10593000036813F0C00301D08B4207D10123036039
:10594000002082F31188BFF36F8F70474FF0FF3054
:10595000F7E710B54FF02003EFF3118283F31188BE
:10596000BFF36F8F036803F00704012C06D10160B9
:10597000002082F31188BFF36F8F10BD03F0C003C6
:105980008B4214BF4FF0FF306FF00F00F1E74FF084
:105990002003EFF3118283F31188BFF36F8F036845
:1059A00003F0C00343F00203036082F31188BFF3E6
:1059B0006F8F70476FF02200704710B41C24C068CE
:1059C000CBB203FB0400002110BC10470220FDF7FE
:1059D000CDBD0020FDF7CABD0220FDF773BD00203C
:1059E000FDF770BD38B50C24C9B24C430546C068FC
:1059F00004F15C0380211844FFF792FF002804DBC8
:105A000069680C4463689847002038BDF8B50C24D9
:105A1000C9B24C43C568064604F15C0080212844A5
:105A20001746FFF796FF002808DB7B6825446B6567
:105A3000BB68AB6573681B5998470020F8BD704779
:105A400070470020FCF702B9436E83F30B88704760
:105A500001460068FCF7FCBC08B5FCF727FDBDE873
:105A60000840FCF72BBF431E013913F8012F11F832
:105A7000010F824201D1002AF7D1101A704710B5E8
:105A80005AB10139841810F8012B11F8013FA042D6
:105A900001D09A42F7D0D01A10BD1046FCE7F0B5FD
:105AA00081EA0004A50703460BD0013B0A4491425A
:105AB0001BD1F0BD002AFCD011F8014B013A03F8CC
:105AC000014B9C07F6D122F003041D1F96080F1905
:105AD000B94205D16FF00305234405FB0622E4E734
